{
  "contractName": "Election",
  "abi": [
    {
      "inputs": [],
      "payable": false,
      "stateMutability": "nonpayable",
      "type": "constructor"
    },
    {
      "constant": true,
      "inputs": [
        {
          "internalType": "uint256",
          "name": "",
          "type": "uint256"
        }
      ],
      "name": "candidates",
      "outputs": [
        {
          "internalType": "uint256",
          "name": "id",
          "type": "uint256"
        },
        {
          "internalType": "string",
          "name": "name",
          "type": "string"
        },
        {
          "internalType": "uint256",
          "name": "voteCount",
          "type": "uint256"
        }
      ],
      "payable": false,
      "stateMutability": "view",
      "type": "function"
    },
    {
      "constant": true,
      "inputs": [],
      "name": "candidatesCount",
      "outputs": [
        {
          "internalType": "uint256",
          "name": "",
          "type": "uint256"
        }
      ],
      "payable": false,
      "stateMutability": "view",
      "type": "function"
    }
  ],
  "bytecode": "0x608060405234801561001057600080fd5b506100556040518060400160405280600b81526020017f43616e646964617465203100000000000000000000000000000000000000000081525061009e60201b60201c565b6100996040518060400160405280600b81526020017f43616e646964617465203200000000000000000000000000000000000000000081525061009e60201b60201c565b6101bd565b60008081548092919060010191905055506040518060600160405280600054815260200182815260200160008152506001600080548152602001908152602001600020600082015181600001556020820151816001019080519060200190610107929190610118565b506040820151816002015590505050565b828054600181600116156101000203166002900490600052602060002090601f016020900481019282601f1061015957805160ff1916838001178555610187565b82800160010185558215610187579182015b8281111561018657825182559160200191906001019061016b565b5b5090506101949190610198565b5090565b6101ba91905b808211156101b657600081600090555060010161019e565b5090565b90565b61020b806101cc6000396000f3fe608060405234801561001057600080fd5b50600436106100365760003560e01c80632d35a8a21461003b5780633477ee2e14610059575b600080fd5b61004361010e565b6040518082815260200191505060405180910390f35b6100856004803603602081101561006f57600080fd5b8101908080359060200190929190505050610114565b6040518084815260200180602001838152602001828103825284818151815260200191508051906020019080838360005b838110156100d15780820151818401526020810190506100b6565b50505050905090810190601f1680156100fe5780820380516001836020036101000a031916815260200191505b5094505050505060405180910390f35b60005481565b6001602052806000526040600020600091509050806000015490806001018054600181600116156101000203166002900480601f0160208091040260200160405190810160405280929190818152602001828054600181600116156101000203166002900480156101c65780601f1061019b576101008083540402835291602001916101c6565b820191906000526020600020905b8154815290600101906020018083116101a957829003601f168201915b505050505090806002015490508356fea265627a7a723158207d3c21ea26fb5ce5fc81740521abf116fa090d9eb322c33351b26dab817a80b564736f6c63430005100032",
  "source": "// SPDX-License-Identifier: MIT\npragma solidity >=0.4.21 <0.7.0;\n\ncontract Election {\n  // Candidate structure\n  struct Candidate {\n    uint id;\n    string name;\n    uint voteCount;\n  }\n\n  // Instantiate Candidates\n  constructor () public {\n    addCandidate(\"Candidate 1\");\n    addCandidate(\"Candidate 2\");\n  }\n\n  // Iterator to track number of candidates\n  uint public candidatesCount;\n\n  // Maps a candidate to an interger key. With it being public this functions as a getter\n  mapping(uint => Candidate) public candidates;\n\n  // Function that increments candidate count, and creates a new candidate mapped to the id in candidates.\n  // This newly created candidate is instantiated with an ID of the candidateCount iterator, name passed to function,\n  // and 0 voteCount\n  function addCandidate (string memory _name) private {\n    candidatesCount ++;\n    candidates[candidatesCount] = Candidate(candidatesCount, _name, 0);\n  }\n}",
  "sourcePath": "/Users/corwinsmith/Documents/solidity-election/contracts/Election.sol",
  "compiler": {
    "name": "solc",
    "version": "0.5.16+commit.9c3226ce.Emscripten.clang"
  },
  "schemaVersion": "3.3.4",
  "updatedAt": "2021-03-22T02:13:55.437Z",
  "networkType": "ethereum",
  "devdoc": {
    "methods": {}
  },
  "userdoc": {
    "methods": {}
  }
}